:020000040800F2
:1000000000500020514E0008F9190008FB190008A3
:10001000FD190008FF190008011A0008000000007F
:10002000000000000000000000000000031A0008AB
:10003000051A000800000000071A0008091A000845
:10004000994E0008994E0008994E0008994E0008F4
:10005000994E0008994E0008994E0008994E0008E4
:10006000994E0008994E0008994E0008994E0008D4
:10007000994E0008994E0008994E0008994E0008C4
:10008000994E0008994E0008994E0008994E0008B4
:10009000994E0008994E0008994E0008994E0008A4
:1000A000994E0008994E0008994E0008994E000894
:1000B000994E0008994E0008994E0008994E000884
:1000C000994E0008994E0008994E0008994E000874
:1000D000994E0008994E0008994E0008994E000864
:1000E000111A0008994E0008994E000800000000FF
:1000F0000000000000000000000000000000000000
:0C01000000000000000000005FF808F1A3
:1001100010B5054C237833B9044B13B10448AFF341
:1001200000800123237010BD080B00200000000098
:1001300080B5000808B5034B1BB103490348AFF372
:10014000008008BD000000000C0B002080B50008F6
:1001500081F0004102E000BF83F0004330B54FEA78
:1001600041044FEA430594EA050F08BF90EA020FE5
:100170001FBF54EA000C55EA020C7FEA645C7FEA78
:10018000655C00F0E2804FEA5454D4EB5555B8BF9B
:100190006D420CDD2C4480EA020281EA030382EA0C
:1001A000000083EA010180EA020281EA0303362D9E
:1001B00088BF30BD11F0004F4FEA01314FF4801C71
:1001C0004CEA113102D0404261EB410113F0004F83
:1001D0004FEA03334CEA133302D0524263EB43033A
:1001E00094EA050F00F0A780A4F10104D5F1200ED8
:1001F0000DDB02FA0EFC22FA05F2801841F1000133
:1002000003FA0EF2801843FA05F359410EE0A5F106
:1002100020050EF1200E012A03FA0EFC28BF4CF037
:10022000020C43FA05F3C01851EBE37101F00045ED
:1002300007D54FF0000EDCF1000C7EEB00006EEBFA
:100240000101B1F5801F1BD3B1F5001F0CD3490884
:100250005FEA30004FEA3C0C04F101044FEA4452DB
:1002600012F5800F80F09A80BCF1004F08BF5FEA62
:10027000500C50F1000041EB045141EA050130BD42
:100280005FEA4C0C404141EB0101013C28BFB1F554
:10029000801FE9D291F0000F04BF01460020B1FA9F
:1002A00081F308BF2033A3F10B03B3F120020CDA72
:1002B0000C3208DD02F1140CC2F10C0201FA0CF050
:1002C00021FA02F10CE002F11402D8BFC2F1200CB5
:1002D00001FA02F120FA0CFCDCBF41EA0C0190406B
:1002E000E41AA2BF01EB0451294330BD6FEA0404B4
:1002F0001F3C1CDA0C340EDC04F11404C4F120029F
:1003000020FA04F001FA02F340EA030021FA04F3B0
:1003100045EA030130BDC4F10C04C4F1200220FA07
:1003200002F001FA04F340EA0300294630BD21FA45
:1003300004F0294630BD94F0000F83F4801306BF0B
:1003400081F480110134013D4EE77FEA645C18BFFF
:100350007FEA655C29D094EA050F08BF90EA020F96
:1003600005D054EA000C04BF1946104630BD91EA8E
:10037000030F1EBF0021002030BD5FEA545C05D191
:100380004000494128BF41F0004130BD14F58004D0
:100390003CBF01F5801130BD01F0004545F0FE4144
:1003A00041F470014FF0000030BD7FEA645C1ABF79
:1003B000194610467FEA655C1CBF0B46024650EAB0
:1003C000013406BF52EA033591EA030F41F40021DC
:1003D00030BD00BF90F0000F04BF0021704730B562
:1003E0004FF4806404F132044FF000054FF0000137
:1003F00050E700BF90F0000F04BF0021704730B5F8
:100400004FF4806404F1320410F0004548BF4042CC
:100410004FF000013EE700BF42004FEAE2014FEA21
:1004200031014FEA02701FBF12F07F4393F07F4FFC
:1004300081F06051704732F07F4208BF704793F0FF
:100440007F4F04BF41F40021704730B54FF4607412
:1004500001F0004521F000411CE700BF50EA010215
:1004600008BF704730B54FF000050AE050EA0102BE
:1004700008BF704730B511F0004502D5404261EB2E
:1004800041014FF4806404F132045FEA915C3FF46F
:10049000D8AE4FF003025FEADC0C18BF03325FEA0C
:1004A000DC0C18BF033202EBDC02C2F1200300FABD
:1004B00003FC20FA02F001FA03FE40EA0E0021FAE2
:1004C00002F11444BDE600BF70B54FF0FF0C4CF4D0
:1004D000E06C1CEA11541DBF1CEA135594EA0C0F82
:1004E00095EA0C0F00F0DEF82C4481EA030621EABD
:1004F0004C5123EA4C5350EA013518BF52EA0335F8
:1005000041F4801143F4801338D0A0FB02CE4FF0A9
:100510000005E1FB02E506F00042E0FB03E54FF0D9
:100520000006E1FB03569CF0000F18BF4EF0010ED1
:10053000A4F1FF04B6F5007F64F5407404D25FEACD
:100540004E0E6D4146EB060642EAC62141EA555180
:100550004FEAC52040EA5E504FEACE2EB4F1FD0CC2
:1005600088BFBCF5E06F1ED8BEF1004F08BF5FEA40
:10057000500E50F1000041EB045170BD06F00046F2
:1005800046EA010140EA020081EA0301B4EB5C049F
:10059000C2BFD4EB0C0541EA045170BD41F4801197
:1005A0004FF0000E013C00F3AB8014F1360FDEBFBC
:1005B000002001F0004170BDC4F10004203C35DA98
:1005C0000C341BDC04F11404C4F1200500FA05F31B
:1005D00020FA04F001FA05F240EA020001F00042BC
:1005E00021F0004110EBD37021FA04F642EB060132
:1005F0005EEA430E08BF20EAD37070BDC4F10C045C
:10060000C4F1200500FA04F320FA05F001FA04F21F
:1006100040EA020001F0004110EBD37041F100010B
:100620005EEA430E08BF20EAD37070BDC4F1200516
:1006300000FA05F24EEA020E20FA04F301FA05F27E
:1006400043EA020321FA04F001F0004121FA04F226
:1006500020EA020000EBD3705EEA430E08BF20EAF6
:10066000D37070BD94F0000F0FD101F00046400030
:1006700041EB010111F4801F08BF013CF7D041EAB2
:10068000060195F0000F18BF704703F000465200B6
:1006900043EB030313F4801F08BF013DF7D043EA87
:1006A0000603704794EA0C0F0CEA135518BF95EA3D
:1006B0000C0F0CD050EA410618BF52EA4306D1D1C4
:1006C00081EA030101F000414FF0000070BD50EAE3
:1006D000410606BF1046194652EA430619D094EA6D
:1006E0000C0F02D150EA013613D195EA0C0F05D157
:1006F00052EA03361CBF104619460AD181EA0301AB
:1007000001F0004141F0FE4141F470014FF0000062
:1007100070BD41F0FE4141F4780170BD70B54FF0FD
:10072000FF0C4CF4E06C1CEA11541DBF1CEA13557D
:1007300094EA0C0F95EA0C0F00F0A7F8A4EB05045F
:1007400081EA030E52EA03354FEA013100F0888056
:100750004FEA03334FF0805545EA131343EA12631F
:100760004FEA022245EA111545EA10654FEA0026D4
:100770000EF000419D4208BF964244F1FD0404F58D
:10078000407402D25B084FEA3202B61A65EB0305E9
:100790005B084FEA32024FF480104FF4002CB6EBA6
:1007A000020E75EB030E22BFB61A754640EA0C0026
:1007B0005B084FEA3202B6EB020E75EB030E22BF66
:1007C000B61A754640EA5C005B084FEA3202B6EBA7
:1007D000020E75EB030E22BFB61A754640EA9C0066
:1007E0005B084FEA3202B6EB020E75EB030E22BF36
:1007F000B61A754640EADC0055EA060E18D04FEAF4
:10080000051545EA16754FEA06164FEAC30343EA93
:1008100052734FEAC2025FEA1C1CC0D111F4801F60
:100820000BD141EA00014FF000004FF0004CB6E759
:1008300011F4801F04BF01430020B4F1FD0C88BFF8
:10084000BCF5E06F3FF6AFAEB5EB030C04BFB6EB03
:10085000020C5FEA500C50F1000041EB045170BDF6
:100860000EF0004E4EEA113114EB5C04C2BFD4EB23
:100870000C0541EA045170BD41F480114FF0000EA7
:10088000013C90E645EA060E8DE60CEA135594EA23
:100890000C0F08BF95EA0C0F3FF43BAF94EA0C0F26
:1008A0000AD150EA01347FF434AF95EA0C0F7FF49B
:1008B00025AF104619462CE795EA0C0F06D152EAEF
:1008C00003353FF4FDAE1046194622E750EA4106D3
:1008D00018BF52EA43067FF4C5AE50EA41047FF4E4
:1008E0000DAF52EA43057FF4EBAE12E74FF0FF3C49
:1008F00006E000BF4FF0010C02E000BF4FF0010C1A
:100900004DF804CD4FEA410C7FEA6C5C4FEA430C92
:1009100018BF7FEA6C5C1BD001B050EA410C0CBFE1
:1009200052EA430C91EA030F02BF90EA020F002043
:10093000704710F1000F91EA030F58BF994208BFAA
:1009400090422CBFD8176FEAE37040F00100704767
:100950004FEA410C7FEA6C5C02D150EA013C07D1BE
:100960004FEA430C7FEA6C5CD6D152EA033CD3D009
:100970005DF8040B704700BF8446104662468C4603
:100980001946634600E000BF01B5FFF7B7FF002836
:1009900048BF10F1000F01BD4DF808EDFFF7F4FF5F
:1009A0000CBF012000205DF808FB00BF4DF808EDEA
:1009B000FFF7EAFF34BF012000205DF808FB00BF0D
:1009C0004DF808EDFFF7E0FF94BF012000205DF82F
:1009D00008FB00BF4DF808EDFFF7CEFF94BF0120E4
:1009E00000205DF808FB00BF4DF808EDFFF7C4FFDD
:1009F00034BF012000205DF808FB00BF4FEA410230
:100A000012F5001215D211D56FF47873B3EB625260
:100A100012D94FEAC12343F0004343EA505311F087
:100A2000004F23FA02F018BF404270474FF0000019
:100A3000704750EA013005D111F0004008BF6FF057
:100A4000004070474FF00000704700BF4FEA41027E
:100A5000B2F1E04324BFB3F5001CDCF1FE5C0DD91C
:100A600001F0004C4FEAC0024CEA5070B2F1004F66
:100A700040EB830008BF20F00100704711F0804F69
:100A800021D113F13872BCBF01F00040704741F42E
:100A900080114FEA5252C2F11802C2F1200C10FA32
:100AA0000CF320FA02F018BF40F001004FEAC12316
:100AB0004FEAD32303FA0CFC40EA0C0023FA02F3BA
:100AC0004FEA4303CCE77FEA625307D150EA013390
:100AD0001EBF4FF0FE4040F44000704701F0004060
:100AE00040F0FE4040F40000704700BF80F000403E
:100AF00002E000BF81F0004142001FBF5FEA4103F6
:100B000092EA030F7FEA226C7FEA236C6AD04FEAF5
:100B10001262D2EB1363C1BFD2184140484041403A
:100B2000B8BF5B42192B88BF704710F0004F40F4EC
:100B3000000020F07F4018BF404211F0004F41F408
:100B4000000121F07F4118BF494292EA030F3FD0D4
:100B5000A2F1010241FA03FC10EB0C00C3F12003E7
:100B600001FA03F100F0004302D5494260EB400076
:100B7000B0F5000F13D3B0F1807F06D340084FEAE1
:100B8000310102F10102FE2A51D2B1F1004F40EBD6
:100B9000C25008BF20F0010040EA0300704749003E
:100BA00040EB0000013A28BFB0F5000FEDD2B0FADB
:100BB00080FCACF1080CB2EB0C0200FA0CF0AABFFE
:100BC00000EBC25052421843BCBFD040184370479C
:100BD00092F0000F81F4000106BF80F400000132A2
:100BE000013BB5E74FEA41037FEA226C18BF7FEA79
:100BF000236C21D092EA030F04D092F0000F08BFBB
:100C00000846704790EA010F1CBF0020704712F0A1
:100C10007F4F04D1400028BF40F00040704712F1E0
:100C200000723CBF00F50000704700F0004343F045
:100C3000FE4040F4000070477FEA226216BF08467B
:100C40007FEA23630146420206BF5FEA412390EA3E
:100C5000010F40F4800070474FF0000304E000BF34
:100C600010F0004348BF40425FEA000C08BF7047E5
:100C700043F0964301464FF000001CE050EA0102A9
:100C800008BF70474FF000030AE000BF50EA0102BE
:100C900008BF704711F0004302D5404261EB4101AB
:100CA0005FEA010C02BF84460146002043F0B643D0
:100CB00008BFA3F18053A3F50003BCFA8CF2083AF5
:100CC000A3EBC25310DB01FA02FC634400FA02FCFE
:100CD000C2F12002BCF1004F20FA02F243EB020005
:100CE00008BF20F00100704702F1200201FA02FC67
:100CF000C2F1200250EA4C0021FA02F243EB02005A
:100D000008BF20EADC7070474FF0FF0C1CEAD0529D
:100D10001EBF1CEAD15392EA0C0F93EA0C0F6FD05E
:100D20001A4480EA010C400218BF5FEA41211ED03C
:100D30004FF0006343EA501043EA5111A0FB013128
:100D40000CF00040B1F5000F3EBF490041EAD371FD
:100D50005B0040EA010062F17F02FD2A1DD8B3F179
:100D6000004F40EBC25008BF20F00100704790F0E8
:100D7000000F0CF0004C08BF49024CEA502040EA3A
:100D800051207F3AC2BFD2F1FF0340EAC250704700
:100D900040F400004FF00003013A5DDC12F1190F3E
:100DA000DCBF00F000407047C2F10002410021FAB0
:100DB00002F1C2F1200200FA02FC5FEA310040F1C8
:100DC000000053EA4C0308BF20EADC70704792F041
:100DD000000F00F0004C02BF400010F4000F013A79
:100DE000F9D040EA0C0093F0000F01F0004C02BF74
:100DF000490011F4000F013BF9D041EA0C018FE7E3
:100E00000CEAD15392EA0C0F18BF93EA0C0F0AD0E8
:100E100030F0004C18BF31F0004CD8D180EA01000E
:100E200000F00040704790F0000F17BF90F0004FA7
:100E3000084691F0000F91F0004F14D092EA0C0F89
:100E400001D142020FD193EA0C0F03D14B0218BF1C
:100E5000084608D180EA010000F0004040F0FE4062
:100E600040F40000704740F0FE4040F440007047FE
:100E70004FF0FF0C1CEAD0521EBF1CEAD15392EA7D
:100E80000C0F93EA0C0F69D0A2EB030280EA010C6D
:100E900049024FEA402037D04FF0805343EA111106
:100EA00043EA10130CF000408B4238BF5B0042F164
:100EB0007D024FF4000C8B4224BF5B1A40EA0C0009
:100EC000B3EB510F24BFA3EB510340EA5C00B3EB3B
:100ED000910F24BFA3EB910340EA9C00B3EBD10F29
:100EE00024BFA3EBD10340EADC001B0118BF5FEA7B
:100EF0001C1CE0D1FD2A3FF650AF8B4240EBC250A4
:100F000008BF20F0010070470CF0004C4CEA502064
:100F10007F32C2BFD2F1FF0340EAC250704740F4B3
:100F200000004FF00003013A37E792F0000F00F0A5
:100F3000004C02BF400010F4000F013AF9D040EA23
:100F40000C0093F0000F01F0004C02BF490011F4B7
:100F5000000F013BF9D041EA0C0195E70CEAD153AF
:100F600092EA0C0F08D142027FF47DAF93EA0C0F96
:100F70007FF470AF084676E793EA0C0F04D14B027A
:100F80003FF44CAF08466EE730F0004C18BF31F02C
:100F9000004CCAD130F000427FF45CAF31F0004326
:100FA0007FF43CAF5FE700BF4FF0FF3C06E000BFBF
:100FB0004FF0010C02E000BF4FF0010C4DF804CDE2
:100FC0004FEA40024FEA41037FEA226C18BF7FEAF2
:100FD000236C11D001B052EA530C18BF90EA010FF4
:100FE00058BFB2EB030088BFC81738BF6FEAE17083
:100FF00018BF40F0010070477FEA226C02D15FEA1F
:10100000402C05D17FEA236CE4D15FEA412CE1D08A
:101010005DF8040B704700BF844608466146FFE751
:101020000FB5FFF7C9FF002848BF10F1000F0FBD33
:101030004DF808EDFFF7F4FF0CBF012000205DF82C
:1010400008FB00BF4DF808EDFFF7EAFF34BF0120B1
:1010500000205DF808FB00BF4DF808EDFFF7E0FF4A
:1010600094BF012000205DF808FB00BF4DF808ED9B
:10107000FFF7D2FF94BF012000205DF808FB00BFFE
:101080004DF808EDFFF7C8FF34BF012000205DF8E0
:1010900008FB00BF4FEA4002B2F1FE4F0FD34FF002
:1010A0009E03B3EB12620DD94FEA002343F00043D5
:1010B00010F0004F23FA02F018BF404270474FF083
:1010C0000000704712F1610F01D1420205D110F00A
:1010D000004008BF6FF0004070474FF000007047BD
:1010E000844641EA000313F0030349D1403A23D375
:1010F0000B6803604B6843608B688360CB68C36098
:101100000B6903614B6943618B698361CB69C3617F
:101110000B6A03624B6A43628B6A8362CB6AC36267
:101120000B6B03634B6B43638B6B8363CB6BC3634F
:1011300040304031403ADBD230320BD30B68036091
:101140004B6843608B688360CB68C360103010319C
:10115000103AF3D20C3205D351F8043B40F8043B6B
:10116000043AF9D2043208D0D2071CBF11F8013B6F
:1011700000F8013B01D30B8803806046704700BF35
:10118000082A13D38B07B1D010F00303AED0C3F1FC
:101190000403D21ADB071CBF11F8013B00F8013B26
:1011A000A4D331F8023B20F8023B9FE7043AD9D39D
:1011B000013A11F8013B00F8013BF9D20B780370BA
:1011C0004B7843708B788370604670474FEA410CD0
:1011D0007FEA6C5C02D150EA013C0AD14FEA430C31
:1011E0007FEA6C5C02D152EA033C02D14FF000006E
:1011F00070474FF00100704753B94AB9002908BF42
:1012000000281CBF4FF0FF314FF0FF3000F076B9DF
:10121000ADF1080C6DE904CE00F006F8DDF804E04D
:10122000DDE9022304B070472DE9F047089E0D4622
:1012300004468846002B4DD18A42944668D9B2FABA
:1012400082F252B101FA02F3C2F1200120FA01F157
:101250000CFA02FC41EA030894404FEA1C41B8FB37
:10126000F1F71FFA8CFE01FB178807FB0EF0230C29
:1012700043EA084398420AD91CEB030307F1FF3500
:1012800080F01E81984240F21B81023F63441B1A8A
:10129000B3FBF1F001FB103300FB0EFEA4B244EAF5
:1012A0000344A6450AD91CEB040400F1FF3380F087
:1012B0000981A64540F20681644402380021A4EB6E
:1012C0000E0440EA07401EB10023D440C6E90043A3
:1012D000BDE8F0878B4208D9002E00F0EE80002197
:1012E000C6E900050846BDE8F087B3FA83F1002996
:1012F0004AD1AB4202D3824200F2FC80841A65EBF1
:10130000030301209846002EE2D0C6E90048DFE73B
:1013100002B9FFDEB2FA82F2002A40F09180A1EB1E
:101320000C0001214FEA1C471FFA8CFEB0FBF7F3BB
:1013300007FB1300250C45EA00450EFB03F0A8420D
:1013400008D91CEB050503F1FF3802D2A84200F2D0
:10135000CE8043462D1AB5FBF7F007FB10550EFB68
:1013600000FEA4B244EA0544A64508D91CEB0404D7
:1013700000F1FF3502D2A64500F2B6802846A4EB64
:101380000E0440EA03409EE7C1F120078B4022FA99
:1013900007FC4CEA030C25FA07FA4FEA1C49BAFB92
:1013A000F9F820FA07F309FB18AA8D401FFA8CFE02
:1013B0001D4300FA01F308FB0EF02C0C44EA0A442A
:1013C000A04202FA01F20BD91CEB040408F1FF3A27
:1013D00080F08880A04240F28580A8F10208644431
:1013E000241AB4FBF9F009FB104400FB0EFEADB269
:1013F00045EA0444A64508D91CEB040400F1FF3576
:101400006CD2A6456AD90238644440EA0840A0FB81
:101410000295A4EB0E04AC42C846AE4656D353D058
:10142000002E69D0B3EB080264EB0E0422FA01F33C
:1014300004FA07F71F43CC40C6E90074002147E7D0
:101440000CFA02FCC2F1200125FA01F34FEA1C4715
:1014500020FA01F195400D43B3FBF7F107FB11337F
:101460001FFA8CFE280C40EA034001FB0EF3834276
:1014700004FA02F408D91CEB000001F1FF382FD266
:1014800083422DD902396044C01AB0FBF7F307FB41
:101490001300ADB245EA004503FB0EF0A84208D99F
:1014A0001CEB050503F1FF3816D2A84214D9023B04
:1014B0006544281A43EA014138E73146304607E7D8
:1014C0002F46E4E61846F9E64B45A9D2B9EB0208E7
:1014D00065EB0C0E0138A3E74346EAE7284694E79C
:1014E0004146D1E7D0467BE76444023847E7023BF8
:1014F00065442FE7084606E73146E9E6704700BF36
:1015000070B588B000240494059406940794214B88
:101510009A6942F020029A619A6902F020020192CF
:10152000019A9A6942F004029A619A6902F00402EF
:101530000292029A9A6942F008029A619B6903F04A
:1015400008030393039B144E22464FF47041304628
:1015500000F034FE4FF47043049301250595069482
:101560000323079304A9304600F016FD4FF480537F
:1015700004930A4B0593069504A9094800F00CFD55
:1015800022462946282000F0ADFC282000F0E2FC8D
:1015900008B070BD00100240000C01400000211096
:1015A0000008014008B50B480B4B03600B4B436030
:1015B00000238360C3604FF4804202614361836112
:1015C000C361036201F02EF800B908BD00F00AF90A
:1015D000FBE700BF240B002000540040A086010060
:1015E00008B50B480B4B03600B4B43600023836033
:1015F000C3604FF48042026143618361C36103624F
:1016000001F010F800B908BD00F0ECF8FBE700BFEE
:10161000780B002000580040801A060010B588B0F2
:10162000002304930593069307930368264A934285
:1016300004D0264A934227D008B010BD244CA36999
:1016400043F00803A361A36903F008030093009B20
:101650004FF440730493122305930323079304A9C3
:101660001C4800F099FC1C4A536843F0E06343F0C7
:1016700002035360E36943F40013E361E36903F495
:1016800000130193019BD7E7114CA36943F00803B2
:10169000A361A36903F008030293029B4FF4406324
:1016A0000493122305930323079304A9094800F028
:1016B00073FCE36943F48003E361E36903F48003AB
:1016C0000393039BB8E700BF00540040005800405C
:1016D00000100240000C01400000014030B583B012
:1016E000044632213C2003F0DDF90A4D2046FEF786
:1016F00093FECDE90001084A0821284603F04AFC80
:1017000001220649284603F021FA03F069FA03B0E2
:1017100030BD00BF3C0C002098B5000848010020F7
:101720002DE9F04383B00546894690461F460A21BD
:101730003C2003F0B7F9284E284C2846FEF76CFEF3
:10174000CDE9000132460821204603F023FC244D58
:1017500001222946204603F0F9F914213C2003F028
:10176000A1F94846FEF758FECDE9000132460821AE
:10177000204603F00FFC01222946204603F0E6F93B
:101780001E213C2003F08EF94046FEF745FECDE9D0
:10179000000132460821204603F0FCFB01222946C5
:1017A000204603F0D3F928213C2003F07BF938468A
:1017B000FEF732FECDE9000132460821204603F053
:1017C000E9FB01222946204603F0C0F903F008FA9C
:1017D00003B0BDE8F08300BFA0B500083C0C0020BA
:1017E0004801002072B6FEE700B591B02822002122
:1017F00006A803F07DFB0023019302930393049357
:101800000593012206924FF4803307930A92022235
:101810000D920E934FF4E0130F9306A801F020FBF6
:1018200080B90F23019302210291002303934FF407
:1018300080620492059301A801F050FD20B911B017
:101840005DF804FBFFF7CEFFFFF7CCFF80B500F09B
:1018500013FBFFF7C9FFFFF753FEFFF7C1FE00F0D0
:1018600003FA00F00BF900F03DF9FFF79BFE00F0E2
:1018700089FA03F0D9F90A21084603F013F93D4C1F
:10188000012221463C4803F061F914210A2003F0AB
:1018900009F901222146394803F058F91E210A208E
:1018A00003F000F901222146354803F04FF92821C1
:1018B0000A2003F0F7F801222146324803F046F9E6
:1018C00032210A2003F0EEF8012221462E4803F0CF
:1018D0003DF90123002211462C4802F03BFF00286D
:1018E0003ED02A4C4F21204602F026FF204602F02F
:1018F0006DFF274C0021204602F08EF80C21204677
:1019000002F08AF83C21234802F0F4F83C212248F6
:1019100002F0F0F803F064F91C4BD3E91867D3E93F
:1019200010891E4B1868FFF79BF982461C4B1868FC
:10193000FFF796F9054640464946FFF787F8044603
:1019400030463946FFF782F853462A462146FFF7CC
:10195000E7FE144B1868FFF783F9FFF7BFFEDBE7DC
:1019600032211E2003F09EF8012221460E4803F08A
:10197000EDF8B6E748010020A4B50008ACB50008B2
:10198000B4B50008BCB50008C4B50008D00B0020F1
:10199000480C0020900C0020D80C00207C0D00206A
:1019A000780D0020880D0020C8B5000800B583B070
:1019B0000F4B9A6942F001029A619A6902F00102A2
:1019C0000092009ADA6942F08052DA61DB6903F032
:1019D00080530193019B052000F072FA054A536879
:1019E00023F0E06343F00073536003B05DF804FB41
:1019F0000010024000000140FEE7FEE7FEE7FEE7C0
:101A0000FEE770477047704708B500F047FA08BD19
:101A100008B54FF4805000F0D7FB08BD0120704797
:101A200008B503F03BFA162303604FF0FF3008BD02
:101A300008B54FF0FF31FFF7F3FFFEE708B50346A7
:101A40000B4A126842B10A4A106803446A4693423C
:101A500006D8074A136008BD054A06491160F2E737
:101A600003F01CFA0C2303604FF0FF30F3E700BFD4
:101A7000440C0020E81100207047000000B58DB034
:101A80002422002103A803F033FA002301930293D8
:101A900013484FF080420260436083604FF6FF724C
:101AA000C2600361836103230393012205920A2329
:101AB000079309920B9303A901F030FE50B900235C
:101AC0000193029301A9064802F090F828B90DB0DD
:101AD0005DF804FBFFF786FEF1E7FFF783FEF6E70C
:101AE000900C002000B58DB02422002103A803F043
:101AF000FFF90023019302931348144A02604360E4
:101B000083604FF6FF72C260036183610323039316
:101B1000012205920A23079309920B9303A901F06E
:101B2000FDFD50B900230193029301A9064802F07C
:101B30005DF828B90DB05DF804FBFFF753FEF1E73F
:101B4000FFF750FEF6E700BFD80C00200008004069
:101B50000268094B9A4200D0704782B003F5644393
:101B60009A6942F400629A619B6903F400630193ED
:101B7000019B02B0704700BF002C014000B589B046
:101B8000002304930593069307930368B3F1804FF2
:101B900005D01D4A93421DD009B05DF804FB03F542
:101BA0000433DA6942F00102DA61DA6902F0010213
:101BB0000092009A9A6942F004029A619B6903F0CC
:101BC00004030193019B0323049304A90F4800F02D
:101BD000E3F9E1E70E4BDA6942F00402DA61DA690F
:101BE00002F004020292029A9A6942F008029A6193
:101BF0009B6903F008030393039BC023049304A988
:101C0000044800F0C9F9C7E7000800400008014097
:101C100000100240000C014000B587B00023029381
:101C200003930493059302680D4B9A4202D007B0C8
:101C30005DF804FB03F564439A6942F004029A617B
:101C40009B6903F004030193019B4FF4106302931B
:101C500002230393059302A9024800F09DF9E6E7E9
:101C6000002C01400008014010B596B000241294E9
:101C70001394149415941094119409940A940B9449
:101C80000C940D940E940F942022214601A803F089
:101C90002FF93A483A4B036047234360846040F28F
:101CA000E733C360046144618023836101F0DEFC9B
:101CB000002848D14FF48053129312A92F4801F005
:101CC0002FFE002842D12D4801F0FCFC002840D115
:101CD00000231093119310A9284801F087FF0028D2
:101CE0003AD16023099300220A920B920C920D9232
:101CF0000E920F9209A9214801F09EFD78BB0C229B
:101D000009A91E4801F098FD60BB002301930293CE
:101D10000393049305934FF400520692089301A98C
:101D2000164801F099FF00BB0021144801F074FE31
:101D3000F0B90C21114801F06FFEE0B90F48FFF730
:101D40006BFF16B010BDFFF74DFDB3E7FFF74AFD7F
:101D5000B9E7FFF747FDBBE7FFF744FDC1E7FFF732
:101D600041FDCCE7FFF73EFDCFE7FFF73BFDDBE7AB
:101D7000FFF738FDDDE7FFF735FDDFE7480C002012
:101D8000002C014008B50A480A4B03604FF4165373
:101D9000436000238360C36003610C22426183615E
:101DA000C36102F003F800B908BDFFF71BFDFBE7B4
:101DB000200D00200044004010B586B0002302939F
:101DC0000393049305930268164B9A4201D006B020
:101DD00010BD03F5E633DA6942F40032DA61DA69FC
:101DE00002F400320092009A9A6942F004029A6169
:101DF0009B6903F004030193019B042302930223D4
:101E0000039303230593084C02A9204600F0C4F86D
:101E10000823029300230393049302A9204600F0B1
:101E2000BBF8D4E7004400400008014010B5044668
:101E30000E4B18784FF47A73B3FBF0F30C4A10682A
:101E4000B0FBF3F000F094F868B90F2C01D9012031
:101E50000AE0002221464FF0FF3000F043F8054B26
:101E60001C60002000E0012010BD00BF0400002025
:101E7000000000200800002008B5074A136843F05E
:101E800010031360032000F01BF80020FFF7CEFFC3
:101E9000FFF78CFD002008BD00200240034A1168B6
:101EA000034B1B780B441360704700BF640D002088
:101EB00004000020014B1868704700BF640D00202B
:101EC000074AD36823F4E0631B041B0C000200F4F0
:101ED000E060034343F0BF6343F40033D3607047D3
:101EE00000ED00E000B5194BDB68C3F30223C3F13A
:101EF000070CBCF1040F28BF4FF0040C03F1040ED3
:101F0000BEF1060F18D9033B4FF0FF3E0EFA0CFC52
:101F100021EA0C0199400EFA03F322EA0303194364
:101F200000280BDB0901C9B200F1604000F56140F7
:101F300080F800135DF804FB0023E5E700F00F00D4
:101F40000901C9B2024B1954F4E700BF00ED00E0EB
:101F500014ED00E0002807DB00F01F024009012318
:101F60009340024A42F82030704700BF00E100E091
:101F70000138B0F1807F0BD24FF0E0235861054A61
:101F8000F02182F823100020986107221A6170471F
:101F90000120704700ED00E070B582B00024A44637
:101FA000A6E0804DAA4210D007D97F4DAA420CD09E
:101FB00005F58035AA4208D013E0A5F58015AA42A0
:101FC00003D005F57025AA4207D18A68002A58D0A7
:101FD000012A51D04361082403E0A5F58015AA42E7
:101FE000F3D0BEF1FF0F4ED80646BEF1FF0F4CD81E
:101FF0004FEA8C0233680F25954023EA050304FA63
:1020000002F2134333604B6813F0805F6ED0674B6E
:102010009A6942F001029A619B6903F001030193FE
:10202000019B4FEA9C02951C614B53F825600CF014
:1020300003039D000F23AB4026EA03065D4B984245
:1020400029D003F58063984200F08E8003F5806309
:10205000984200F08B8003F58063984219D00423E6
:102060001AE0CC68BDE7CC680434BAE7CC68083421
:10207000B7E7CC680C34B4E703610824B1E7002467
:10208000AFE70424ADE7061DAFE7ACF1080292000C
:10209000B0E7032300E00023AB4033430232444D5A
:1020A00045F822304B6813F4803F61D0424A1368F0
:1020B00043EA0E0313604B6813F4003F5ED03E4AC0
:1020C000536843EA0E0353604B6813F4801F5BD0E0
:1020D000394A936843EA0E0393604B6813F4001F78
:1020E00058D0354AD36843EA0E03D3600CF1010C93
:1020F0000A6832FA0CF353D0012303FA0CF302EA14
:10210000030E33EA0202F1D14A68122A3FF649AFC0
:10211000122A3FF666AF01A555F822F0CB1F000842
:10212000632000086D2000087F200008E31F0008DE
:10213000E31F0008E31F0008E31F0008E31F000877
:10214000E31F0008E31F0008E31F0008E31F000867
:10215000E31F0008E31F0008E31F0008E31F000857
:102160006720000873200008012395E7022393E706
:10217000114A136823EA0E0313609CE70E4A536862
:1021800023EA0E0353609FE70B4A936823EA0E038A
:102190009360A2E7084AD36823EA0E03D360A5E759
:1021A00002B070BD0000221000003110001002408B
:1021B0000000014000080140000401400AB1016133
:1021C000704709040161704708B5054B5B6903421C
:1021D00000D108BD024B586102F0DCF9F9E700BFFD
:1021E0000004014003685A6912F4806F01D1002095
:1021F00070476FF480625A6100230363202280F8E5
:102200003D2080F83E30026C42F00402026480F807
:102210003C30012070472DE9F04107460D469046BD
:102220001E4624E0FFF746FE069BC01AB04200D8C7
:10223000EEB900233B63202287F83D2087F83E302B
:102240003A6C42F020023A6487F83C3001201EE0EC
:102250003B689C6925EA040C1FFA8CFCBCFA8CFCD8
:102260004FEA5C1CE04511D1B6F1FF3FDAD1C5F36E
:102270000743012BECD13B685B6925EA030C1FFA8D
:102280008CFCBCFA8CFC4FEA5C1CEBE70020BDE840
:10229000F0812DE9F04105460E46174698463DE08F
:1022A0001A6842F400721A602B686FF480625A61F7
:1022B00000232B63202285F83D2085F83E302A6CD0
:1022C00042F004022A6485F83C30012034E0FFF734
:1022D000F1FDA0EB0800B84200D8FFB900232B6342
:1022E000202285F83D2085F83E302A6C42F02002FD
:1022F0002A6485F83C3001201EE02B689C6926EAA0
:102300000404A4B2003C18BF0124A4B12B685A698C
:1023100012F4806FC4D1B7F1FF3FD8D1C6F30743A1
:10232000012BEAD12B685C6926EA0404A4B2003CC4
:1023300018BF0124E9E70020BDE8F081F0B583B0C3
:1023400004460D4616461F46C36A082B0DD0012BC6
:102350000BD013F5803F08D0036B122B0AD1026813
:10236000136843F48073136004E02268136843F435
:10237000807313600097334600224FF0011120460E
:10238000FFF749FF80B92369B3F5804F16D1236861
:1023900005F0FE051D613B46324613492046FFF716
:1023A00078FFF8B903B0F0BD23681B6813F4807F91
:1023B00002D04FF4007323640320F3E7EB1122688B
:1023C00003F0060343F0F00313613B46324607492E
:1023D0002046FFF75EFF18B92368EDB21D61DAE70A
:1023E0000120DFE70120DDE7020001000800010015
:1023F0002DE9F04184B004460D4616461F46C26AD8
:1024000001680B6843F480630B60082A0DD0012A31
:102410000BD012F5803F08D0036B112B0AD1026854
:10242000136843F48073136004E02268136843F474
:10243000807313600097334600224FF0011120464D
:10244000FFF7E9FE98B92369B3F5804F19D12368E6
:1024500045F00105EDB21D613B4632462A49204652
:10246000FFF717FF00284CD104B0BDE8F0812368C6
:102470001B6813F4807F02D04FF4007323640320A1
:10248000F2E74FEAE51808F00608236848F0F00282
:102490001A613B4632461D492046FFF7FAFE08B155
:1024A0000120E1E72368EDB21D613B463246164943
:1024B0002046FFF7EEFE08B10120D5E70022039287
:1024C000236859690391996903910399196841F443
:1024D00080711960009733464FF001112046FFF7D5
:1024E0009AFE20B9226848F0F1031361B4E723682B
:1024F0001B6813F4807F02D04FF400732364032021
:10250000B2E70120B0E700BF0200010008000100AF
:1025100070B504460D46164623685B6913F0800FBC
:102520001CD12046FFF75EFED0B9B5F1FF3FF3D0D6
:10253000FFF7C0FC801BA84201D8002DECD100237E
:102540002363202284F83D2084F83E30226C42F040
:102550002002226484F83C30012000E0002070BD9D
:102560000120FCE770B504460D46164623685B69FA
:1025700013F0040F1CD12046FFF734FED0B9B5F19B
:10258000FF3FF3D0FFF796FC801BA84201D8002D37
:10259000ECD100232363202284F83D2084F83E30D0
:1025A000226C42F02002226484F83C30012000E0DA
:1025B000002070BD0120FCE770B505460C461646AC
:1025C0002B68596911F0400F29D1596911F0100F8A
:1025D00015D1FFF76FFC801BA04201D8002CEFD172
:1025E00000232B63202285F83D2085F83E302A6C9D
:1025F00042F020022A6485F83C30012070BD6FF063
:1026000010025A6100232B63202285F83D2085F8B3
:102610003E302A6C2A6485F83C300120EEE7002029
:10262000ECE70000002800F0CC8070B5044690F87C
:102630003D30002B77D0242384F83D302268136886
:1026400023F0010313602268136843F4004313600E
:102650002268136823F40043136000F0FBFE6268F5
:102660005A4B9A4264D85A4B98428CBF002301239C
:10267000002B40F0A8805749A1FB00318B0C256846
:102680006A6822F03F0242EA91426A6021680A6A5F
:1026900022F03F0266684D4DAE424FD801331343DE
:1026A0000B622168CA6922F44F4222F0FF02666879
:1026B000464B9E424CD8431E7600B3FBF6F30133E3
:1026C00040F6FC70034278D0C3F30B031343CB6195
:1026D00021680B6823F0C003E269206A02431343B8
:1026E0000B6021688B6823F4034323F0FF03226906
:1026F000E068024313438B602168CB6823F0FF033B
:102700006269A06902431343CB602268136843F0F7
:102710000103136000202064202384F83D302063EF
:1027200084F83E0070BD80F83C30FEF777FF82E70A
:10273000294B98428CBF0023012399E74FF49675EB
:1027400005FB03F3254DA5FB03539B090133A6E7C6
:10275000A368BBB9451E06EB460CB5FBFCF501357D
:10276000C5F30B05B5FA85F56D0945BBC3B901384D
:1027700006EB4603B0FBF3F30133C3F30B0343F45F
:102780000043A3E7451E06EB860C0CEB8C0CB5FB57
:10279000FCF50135C5F30B05B5FA85F56D09E4E7E0
:1027A000013806EB860303EB8303B0FBF3F301333D
:1027B000C3F30B0343F4404388E7042386E7012374
:1027C00084E7012070470120ACE700BFA08601002C
:1027D0007F841E0083DE1B43FF083D00D34D621043
:1027E0002DE9F04385B004460F46914698460C9E6D
:1027F000FFF760FB054694F83D00C0B2202804D0E6
:102800000227384605B0BDE8F08300951923012260
:102810004F492046FFF7FFFC002840F0928094F8D3
:102820003C30012B00F08F80012384F83C3023687A
:102830001A6812F0010F03D11A6842F001021A60FF
:102840002268136823F400631360212384F83D3069
:10285000102384F83E3000232364C4F82490A4F8A5
:102860002A80638D23853B4BE3622B4632463946F3
:102870002046FFF763FD0746002866D10023039337
:1028800023685A6903929B690393039B11E0236CAD
:10289000042B01D00127B4E72268136843F40073C6
:1028A0001360F7E72A4631462046FFF75BFE002813
:1028B0002ED1238D002B36D02A4631462046FFF7F5
:1028C00027FE0028E3D1626A236812781A61606AE1
:1028D000431C6362618D89B2013989B26185238DA0
:1028E000013B9BB223852268516911F0040FD9D0B6
:1028F000002BD7D043781361636A01336362638D21
:102900009BB2013B9BB26385238D013B2385C9E7C5
:10291000236C042B01D0012773E72268136843F46A
:1029200000731360F7E72268136843F400731360C1
:10293000202384F83D30002384F83E3084F83C3076
:102940005FE702275DE702275BE7012759E700BF42
:10295000020010000000FFFF2DE9F04389B004469B
:102960000F4691469846109E00230793FFF7A2FA60
:10297000054694F83D00C0B2202804D0022738460E
:1029800009B0BDE8F0830095192301228049204653
:10299000FFF741FC002840F0708194F83C30012B97
:1029A00000F06D81012384F83C3023681A6812F02E
:1029B000010F03D11A6842F001021A6022681368FD
:1029C00023F400631360222384F83D30102384F83D
:1029D0003E3000232364C4F82490A4F82A80638D39
:1029E00023856C4BE3622B46324639462046FFF77F
:1029F000FFFC0746002840F04481238D5BB9039318
:102A000023685A6903929A690392039A1A6842F4F6
:102A100000721A60EEE0012B0FD0022B21D0226849
:102A2000136843F4806313600023069323685A6994
:102A300006929B690693069BDCE02268136823F4E8
:102A40008063136072B60023049323685A6904926A
:102A50009A690492049A1A6842F400721A6062B683
:102A6000C8E02268136843F40063136072B6002361
:102A7000059323685A6905929A690592059A1A681E
:102A800022F480621A6062B6B4E02A4631462046DB
:102A9000FFF792FD002840F0F68023681A69636A08
:102AA0001A70636A01336362238D013B2385638D52
:102AB0009BB2013B9BB263859CE0009533460022AC
:102AC00035492046FFF7A7FB002840F0E080226848
:102AD000136823F48063136072B623681A69636A0B
:102AE0001A70636A01336362238D013B2385638D12
:102AF0009BB2013B9BB26385284B1B68DB08284ACD
:102B0000A2FB03231B0A03EB8303C3EBC30307935B
:102B10000799013907910799002928D023685A6934
:102B200012F0040FF4D01A6842F400721A6023689D
:102B30001A69636A1A70636A01336362238D013B09
:102B40002385638D9BB2013B9BB2638562B623688C
:102B50001A69636A1A70636A01336362238D013BE9
:102B60002385638D9BB2013B9BB2638542E00023CA
:102B70002363202284F83D2084F83E30226C42F00A
:102B80002002226462B684F83C300127F7E600BFD9
:102B9000020010000000FFFF040001000000002000
:102BA00089B5F8142A4631462046FFF705FD00286E
:102BB0006FD123681A69636A1A70626A531C636270
:102BC000238D013B2385638D9BB2013B9BB26385C3
:102BD0002368596911F0040F0CD01B695370636AA4
:102BE00001336362238D013B2385638D9BB2013BDF
:102BF0009BB26385218D002936D00329D2D80129C3
:102C00003FF443AF02297FF458AF009533460022CA
:102C100021492046FFF7FFFA002836D172B6226814
:102C2000136843F40073136023681A69636A1A70A7
:102C3000636A01336362238D013B2385638D9BB2FD
:102C4000013B9BB2638562B623681A69636A1A7096
:102C5000636A01336362238D013B2385638D9BB2DD
:102C6000013B9BB26385C5E7202384F83D300023F8
:102C700084F83E3084F83C3081E602277FE6022764
:102C80007DE601277BE6012779E6012777E6012724
:102C900075E6012773E600BF040001002DE9F0434B
:102CA00085B00446884691461D46FFF703F994F81F
:102CB0003D30DBB2202B03D0022005B0BDE8F0830D
:102CC000064600901923012258492046FFF7A3FA2F
:102CD000002840F0A28094F83C30012B00F09F8047
:102CE000012384F83C3023681A6812F0010F03D1E5
:102CF0001A6842F001021A602268136823F4006324
:102D00001360242384F83D3000232364A3F580332B
:102D1000E362012740E023681B6813F4807F02D040
:102D20004FF4007323640320C7E7A02384F83D30E9
:102D300022685369C3F340035269C2F3802294F8B6
:102D40003DC05FFA8CFCBCF1A00F09D043B93AB981
:102D5000FFF7B0F8801BA842E7D8002DE8D1E4E7E0
:102D6000202384F83D3023685A6912F0020F31D1D4
:102D70001A6842F400721A6023686FF480625A6124
:102D800000961923012229492046FFF744FA00281A
:102D900049D101374F4538D22268136843F4807314
:102DA000136000962B4600224FF001112046FFF7DA
:102DB00032FA0028AFD1236808F0FE021A61FFF74B
:102DC00079F8064622685369C3F340035269C2F397
:102DD0008022B4E71A6842F400721A600023039359
:102DE00023685A6903929B690393039B00961923F6
:102DF00001220E492046FFF70EFA90B9202384F8ED
:102E00003D30002384F83C3057E7202384F83D30E0
:102E1000002384F83C3001204FE702204DE70220D8
:102E20004BE7012049E7012047E700BF02001000FF
:102E3000006C704782B0084B1B68084AA2FB032352
:102E40005B0A00FB03F3019300BF019B5A1E019232
:102E5000002BF9D102B0704700000020D34D621062
:102E6000002800F0F18170B582B00446036813F0C9
:102E7000010F2CD0994B5B6803F00C03042B1DD081
:102E8000964B5B6803F00C03082B12D06368B3F514
:102E9000803F41D0002B55D103F1804303F504332B
:102EA0001A6822F480321A601A6822F480221A60AA
:102EB00037E08A4B5B6813F4803FE7D0874B1B6891
:102EC00013F4003F03D06368002B00F0BF81236838
:102ED00013F0020F75D0814B5B6813F00C0F5FD0BD
:102EE0007E4B5B6803F00C03082B54D02369002B46
:102EF00000F08A807A4B01221A60FEF7DBFF05465C
:102F0000764B1B6813F0020F75D1FEF7D3FF401B01
:102F10000228F5D903209EE1704A136843F48033F8
:102F20001360636843B3FEF7C5FF05466B4B1B6830
:102F300013F4003FCBD1FEF7BDFF401B6428F5D949
:102F4000032088E1B3F5A02F09D0644B1A6822F45E
:102F500080321A601A6822F480221A60E1E703F1D5
:102F60008043A3F53C331A6842F480221A601A6841
:102F700042F480321A60D4E7FEF79CFF0546574BB7
:102F80001B6813F4003FA2D0FEF794FF401B642897
:102F9000F5D903205FE1514B5B6813F4803FA5D165
:102FA0004E4B1B6813F0020F03D02369012B40F036
:102FB0004F814A4A136823F0F803616943EAC10369
:102FC0001360236813F0080F33D0A369002B5CD083
:102FD000434B0122C3F88024FEF76CFF05463F4BAC
:102FE0005B6A13F0020F21D1FEF764FF401B022839
:102FF000F5D903202FE1394A136823F0F8036169FA
:1030000043EAC1031360DCE7354B00221A60FEF788
:1030100051FF0546314B1B6813F0020FD1D0FEF76C
:1030200049FF401B0228F5D9032014E10120FFF7D6
:1030300001FF236813F0040F00F09680274BDB6933
:1030400013F0805F34D1254BDA6942F08052DA61A7
:10305000DB6903F080530193019B0125214B1B6821
:1030600013F4807F26D0E368012B3DD0002B53D191
:1030700003F1804303F504331A6A22F001021A6255
:103080001A6A22F004021A6233E0154B0022C3F8D8
:103090008024FEF70FFF0546104B5B6A13F0020F0A
:1030A000C7D0FEF707FF401B0228F5D90320D2E066
:1030B0000025D3E70B4A136843F480731360FEF7CF
:1030C000F9FE0646074B1B6813F4807FCBD1FEF751
:1030D000F1FE801B6428F5D90320BCE000100240FB
:1030E00000004242007000405F4A136A43F001034F
:1030F0001362E36833B3FEF7DDFE06465A4B1B6AE4
:1031000013F0020F2FD1FEF7D5FE801B41F288335A
:103110009842F3D903209EE0052B09D0524B1A6A3E
:1031200022F001021A621A6A22F004021A62E0E72F
:103130004D4B1A6A42F004021A621A6A42F0010206
:103140001A62D6E7FEF7B6FE0646474B1B6A13F037
:10315000020F08D0FEF7AEFE801B41F28833984282
:10316000F3D9032077E0E5B9E369002B72D03E4A3A
:10317000526802F00C02082A56D0022B17D03B4BA3
:1031800000221A66FEF796FE0446374B1B6813F0C2
:10319000007F47D0FEF78EFE001B0228F5D90320E2
:1031A00059E0314AD36923F08053D361DCE72F4BD8
:1031B00000221A66FEF77EFE05462B4B1B6813F0B5
:1031C000007F06D0FEF776FE401B0228F5D90320CB
:1031D00041E0236AB3F5803F1AD023494B6823F4BA
:1031E0007413226A606A024313434B601F4B01222F
:1031F0001A66FEF75FFE04461B4B1B6813F0007F48
:103200000ED1FEF757FE001B0228F5D9032022E05D
:10321000154A536823F40033A1680B435360DCE77D
:10322000002018E0002016E0012B16D00E4B5B6842
:1032300003F48031226A914211D103F47013626A5F
:1032400093420ED1002006E001207047012002E0E9
:10325000012000E0002002B070BD0120FBE701204A
:10326000F9E70120F7E700BF0010024000004242EA
:1032700086B0164B0FCB0DF1180C0CE90F0040F285
:103280000123ADF80430124B5B6803F00C02082AEE
:1032900002D0104806B07047C3F38342624412F86C
:1032A000100C13F4803F0CD0094B5B68C3F3404310
:1032B000634413F8143C074A02FB00F0B0FBF3F040
:1032C000E8E7054B03FB00F0E4E700BFE4B50008C6
:1032D0000010024000127A0000093D00002800F0B2
:1032E000A08070B50D460446524B1B6803F00703DF
:1032F0008B420BD24F4A136823F007030B43136032
:10330000136803F007038B4240F08D80236813F0AD
:10331000020F17D013F0040F04D0474A536843F448
:10332000E0635360236813F0080F04D0424A5368E7
:1033300043F460535360404A536823F0F003A1689C
:103340000B435360236813F0010F31D06368012BE6
:1033500020D0022B25D0384A126812F0020F64D018
:1033600035494A6822F0030213434B60FEF7A2FD81
:103370000646314B5B6803F00C036268B3EB820FC7
:1033800016D0FEF797FD801B41F288339842F0D9A2
:10339000032045E0284A126812F4003FE0D10120E2
:1033A0003EE0254A126812F0007FD9D1012037E0B3
:1033B000204B1B6803F00703AB420AD91D4A136870
:1033C00023F007032B431360136803F00703AB429A
:1033D0002DD1236813F0040F06D0174A536823F445
:1033E000E063E1680B435360236813F0080F07D0D4
:1033F000114A536823F46053216943EAC1035360BF
:10340000FFF736FF0C4B5B68C3F303130B4AD35C27
:10341000D8400B4B18600B4B1868FEF707FD0020D7
:1034200070BD012070470120FAE70120F8E7012074
:10343000F6E700BF0020024000100240CCB50008B3
:103440000000002008000020014B1868704700BFF2
:103450000000002008B5FFF7F7FF044B5B68C3F3DB
:103460000223034AD35CD84008BD00BF00100240CD
:10347000DCB5000808B5FFF7E7FF044B5B68C3F352
:10348000C223034AD35CD84008BD00BF00100240ED
:10349000DCB5000870B4036A23F001030362036A19
:1034A0004668826922F073020C6844EA020523F040
:1034B00002028B6813430D4CA04209D00B4CA04272
:1034C0000DD0466085614A684263036270BC7047F4
:1034D00023F00803CA68134323F00403EEE726F43D
:1034E00040764A6932438E691643EAE7002C014070
:1034F00030B4036A23F480730362036A4568C269C7
:1035000022F073020C68224323F400738C6843EAB0
:1035100004230F4CA04209D00D4CA0420ED04560B0
:10352000C2614A68C263036230BC704723F400631F
:10353000CC6843EA042323F48063EDE725F4405587
:103540004C6945EA04158C6945EA0415E7E700BFB4
:10355000002C014030B4036A23F480530362036AF1
:103560004468C26922F4E6420D6842EA052223F467
:1035700000538D6843EA0533074DA84206D04460E6
:10358000C2614A680264036230BC704724F480441C
:103590004D6944EA8514F2E7002C014010B4036A37
:1035A000046A24F001040462846924F0F00C4CEAFB
:1035B000021223F00A030B438261036210BC7047BE
:1035C00010B4046A24F0100404628469036A24F4C9
:1035D000704C4CEA023223F0A00343EA01138261EB
:1035E000036210BC7047836823F070030B4343F001
:1035F000070383607047704703681B4A90420AD0F4
:10360000B0F1804F07D0A2F59432904203D002F57A
:103610008062904203D123F070034A681343124A38
:1036200090420AD0B0F1804F07D0A2F59432904278
:1036300003D002F58062904203D123F44073CA683C
:10364000134323F080034A69134303608B68C3620A
:103650000B688362044B984202D001234361704798
:103660000B690363F9E700BF002C014040B310B5BC
:10367000044690F83D30F3B1022384F83D302146F2
:1036800051F8040BFFF7B8FF012384F8463084F8A3
:103690003E3084F83F3084F8403084F8413084F87C
:1036A000423084F8433084F8443084F8453084F85C
:1036B0003D30002010BD80F83C30FEF749FADBE7D2
:1036C0000120704740B310B5044690F83D30F3B187
:1036D000022384F83D30214651F8040BFFF78CFF9C
:1036E000012384F8463084F83E3084F83F3084F873
:1036F000403084F8413084F8423084F8433084F814
:10370000443084F8453084F83D30002010BD80F806
:103710003C30FFF770FFDBE701207047002857D0EF
:1037200070B50D46044690F83D30002B4BD0022377
:1037300084F83D302268936823F4804323F0070324
:103740009360214651F8040BFFF756FF21688A6801
:103750008B690E6A2868104323F4407C2CF0030C1C
:10376000AA68AB6942EA032343EA0C0323F47C43CF
:1037700023F0FC03EA69D5F80CC04CEA022C4CEAB1
:10378000030C2A6A13032A6943EA021343EA0C036F
:1037900026F022066A686D6942EA051232438860A3
:1037A00021688B6123681A62012384F8463084F80B
:1037B0003E3084F83F3084F8423084F8433084F857
:1037C0003D30002070BD80F83C30FEF7D7F9AEE701
:1037D0000120704730B4036A23F010030362036AC8
:1037E0004468826922F4E6420D6842EA052223F029
:1037F00020038D6843EA05130E4DA84209D00D4DF4
:10380000A8420ED0446082614A688263036230BC81
:10381000704723F08003CD6843EA051323F040038B
:10382000EDE724F440644D6944EA85048D6944EA77
:103830008504E7E7002C014038B590F83C30012BB7
:1038400060D004460D46012380F83C300C2A1AD87B
:10385000DFE802F0071919191D1919193119191979
:1038600044000068FFF716FE2268936943F00803DE
:1038700093612268936923F004039361226893693A
:1038800029690B439361002084F83C0038BD00682F
:10389000FFF7A0FF2268936943F4006393612268F5
:1038A000936923F48063936122689369296943EAE9
:1038B00001239361E7E70068FFF71AFE2268D369E6
:1038C00043F00803D3612268D36923F00403D36172
:1038D0002268D36929690B43D361D4E70068FFF7F5
:1038E00039FE2268D36943F40063D3612268D36947
:1038F00023F48063D3612268D369296943EA0123F1
:10390000D361C0E70220C1E710B4846824F47F4C7F
:1039100042EA03220A4342EA0C02826010BC70476A
:1039200090F83C30012B66D010B50446012380F896
:103930003C30022380F83D300268936823F47F43D3
:1039400023F0770393600B68602B40D022D8402B84
:1039500047D00BD9502B0ED1CA6849680068FFF7D1
:103960001DFE50212068FFF73EFE04E0202B0CD006
:1039700008D9302B09D0012384F83D30002084F889
:103980003C0010BD0BB1102BF5D119462068FFF794
:103990002AFEF0E7702B0ED0B3F5005FEBD1CB68B9
:1039A0004A6889680068FFF7AFFF2268936843F4AC
:1039B00080439360DFE7CB684A6889680068FFF757
:1039C000A3FF2268936843F077039360D3E7CA6844
:1039D00049680068FFF7F4FD60212068FFF703FEE7
:1039E000C9E7CA6849680068FFF7D8FD4021206828
:1039F000FFF7F9FDBFE70220704701F01F01012327
:103A000003FA01FC036A23EA0C030362036A02FA65
:103A100001F10B430362704710B50446084651BBE1
:103A200094F83E30DBB2013B18BF0123002B5BD181
:103A3000002839D1022384F83E3001220146206853
:103A4000FFF7DBFF23682A4A93423DD02368284AC8
:103A500093423ED0B3F1804F3BD0A2F594329342D3
:103A600037D002F58062934233D01A6842F00102E7
:103A70001A60002039E0042908D008290DD094F8F4
:103A80004130DBB2013B18BF0123CFE794F83F3050
:103A9000DBB2013B18BF0123C8E794F84030DBB22A
:103AA000013B18BF0123C1E7042805D0082807D02F
:103AB000022384F84130C0E7022384F83F30BCE79A
:103AC000022384F84030B8E75A6C42F400425A644A
:103AD000BCE79A6802F00702062A07D01A6842F08B
:103AE00001021A60002000E0012010BD0020FCE768
:103AF000002C014038B5044690F83E00C0B294F85E
:103B00003F3094F84220D2B294F843C00D4609BB2E
:103B100001285ED1012A5DD1022384F83E3084F869
:103B20004230002D39D0042D48D0012200212068D8
:103B3000FFF763FF012204212068FFF75EFF226880
:103B4000D36843F00203D3602268D36843F00403D0
:103B5000D3602CE0DBB25FFA8CFC042912D0012880
:103B60003DD1012B36D1012A3BD1BCF1010F3AD115
:103B7000022384F83E3084F83F3084F8423084F8E1
:103B80004330CEE7012B26D1BCF1010F25D1022312
:103B900084F83F3084F84330C3E7012200212068D5
:103BA000FFF72BFF2268D36843F00203D36022683B
:103BB000136843F00103136000200BE0012204218D
:103BC0002068FFF71AFF2268D36843F00403D3602C
:103BD000EDE7012038BD0120FCE71846FAE7012097
:103BE000F8E71846F6E71046F4E7000090F83C3096
:103BF000012B2CD010B4012380F83C30022380F834
:103C00003D3003685A689C6822F0700C0A6842EAEA
:103C10000C025A6003680F4A93420AD0B3F1804FF6
:103C200007D0A2F59432934203D002F5806293420A
:103C300004D124F080044A6814439C60012380F876
:103C40003D30002380F83C30184610BC70470220FD
:103C5000704700BF002C014090F83C30012B22D06F
:103C6000012380F83C30CB6823F440738A68134307
:103C700023F480634A68134323F400630A68134300
:103C800023F480530A69134323F400534A6913430E
:103C900023F48043CA69134302685364002380F805
:103CA0003C301846704702207047000010B50446AB
:103CB0000268136923F44053C1680B43136183689E
:103CC0000269134342691A430168CB6823F4B05375
:103CD00023F00C031343CB600268536923F4407351
:103CE00081690B4353610268134B9A4220D0FFF75E
:103CF000B1FB024602EB820202EB820263689B0088
:103D0000B2FBF3F20D48A0FB02314909642303FB27
:103D100011231B013233A0FB03235B0903F0F002E4
:103D200002EB011203F00F03216813448B6010BDF6
:103D3000FFF7A0FB0246DDE7003801401F85EB518D
:103D40002DE9F84305460F4616469946DDF82080D2
:103D50002C68246837EA04030CBF4FF0010C4FF0C5
:103D6000000CB4451FD1B8F1FF3FF1D0B8F1000FFE
:103D700005D0FEF79FF8A0EB09004045E8D92A6876
:103D8000D36823F4D073D3602A68536923F0010306
:103D90005361202385F83D3085F83E30002385F8B7
:103DA0003C30032000E00020BDE8F88358B310B594
:103DB000044690F83D300BB3242384F83D3022684C
:103DC000D36823F40053D3602046FFF76FFF2268C7
:103DD000136923F4904313612268536923F02A0383
:103DE00053612268D36843F40053D36000202064F9
:103DF000202384F83D3084F83E3010BD80F83C30FC
:103E0000FDF7DAFFD8E7012070472DE9F04182B0D5
:103E10001E4690F83D30DBB2202B54D104460D46AF
:103E20009046002953D0002A53D090F83C30012B03
:103E300051D0012380F83C3000230364212380F813
:103E40003D30FEF737F80746A4F82480A4F8268012
:103E5000A368B3F5805F05D04FF00008002384F815
:103E60003C3012E0236913B14FF00008F6E7A84692
:103E70000025F3E738F8023B2268C3F308035360D8
:103E8000E28C92B2013A92B2E284E38C9BB273B1BB
:103E900000963B46002280212046FFF751FFE0B903
:103EA000002DE7D015F8012B23685A60E8E700964B
:103EB0003B46002240212046FFF742FF78B92023ED
:103EC00084F83D3000E0022002B0BDE8F08101201E
:103ED000FAE70120F8E70220F6E70320F4E70320E1
:103EE000F2E72DE9F04182B01E4690F83E30DBB299
:103EF000202B5CD104460D46904600295BD0002A59
:103F00005BD090F83C30012B59D0012380F83C3035
:103F100000230364222280F83E200363FDF7CAFFDA
:103F20000746A4F82C80A4F82E80A368B3F5805F20
:103F300005D04FF00008002384F83C3017E02369D7
:103F400013B14FF00008F6E7A8460025F3E7236811
:103F50005B68C3F3080328F8023B03E023685B684F
:103F60002B700135E28D92B2013A92B2E285E38D77
:103F70009BB2BBB100963B46002220212046FFF7B2
:103F8000DFFEF0B9002DE2D0A368B3F5805FE5D085
:103F900013B92369002BE1D023685B6803F07F032A
:103FA0002B70DEE7202384F83E30002000E0022062
:103FB00002B0BDE8F0810120FAE70120F8E7022015
:103FC000F6E70320F4E70000036813F5617F01DAE8
:103FD0000B4B03600368B3F5617F02DD4FF461733F
:103FE00003600B6813F5617F01DA054B0B600B680A
:103FF000B3F5617F02DD4FF461730B60704700BF62
:104000007CFCFFFF0028B8BF4042704738B50C4623
:10401000051E1ADB154B0122C3F8B0210022C3F89C
:10402000B4212046FFF7EEFF114B1864002C14DB7F
:104030000E4B0122C3F8BC210022C3F8B821284648
:10404000FFF7E0FF0A4B586338BD084B0022C3F866
:10405000B0210122C3F8B421E3E7044B0022C3F8E6
:10406000BC210122C3F8B821E9E700BF008021424A
:10407000002C01402DE9F04792B08246CDE906239D
:10408000D0E90834CDE904341A462346DDE91A01A3
:10409000FCF762F8DDE91C23FCF716FADAE90623DF
:1040A000FCF75CF806460F46CDE90867CAE90667E3
:1040B000DAE91045DDE91C2320462946FCF704FA1D
:1040C00002460B46CDE90223DAE90C8942464B460B
:1040D000FCF742F8DAE90E6732463B46FCF73CF85B
:1040E000DAE90023FCF73AF8DDE91C23FCF7ECF9E8
:1040F000DAE90A23FCF732F80A460146CDE9001254
:10410000CAE90A12DDE9022340464946FCF724F8D1
:1041100080468946CDE90A89CAE90C89DDE902238E
:1041200030463946FCF718F88046894602460B4669
:10413000CAE90E23DDE91C23DAE90201FCF7C4F920
:1041400002460B4620462946FCF708F805460E466F
:10415000CDE90C56CAE91056DAE90423DDE9004539
:1041600020462946FBF7FAFF06460F4602460B4655
:1041700020462946FCF7D2FA04460D46CDE90E4505
:1041800032463B46CDE9028940464946FCF7C6FA2D
:1041900080468946CDE91089DDE9086732463B460D
:1041A000DDE90601FBF7D8FF02460B46CDE9062301
:1041B00020462946FCF788F902460B463046394628
:1041C000FBF7CCFF06460F46CAE90667DDE9062382
:1041D00040464946FCF778F902460B46DDE9040102
:1041E000FBF7BCFFCAE9080122462B46DDE90001C6
:1041F000FCF76AF902460B46DDE90001FBF7ACFF6C
:10420000CAE90A0122462B46DDE90A45204629462D
:10421000FCF75AF902460B4620462946FBF79CFF5D
:10422000CAE90C0142464B46DDE90001FCF74CF9B6
:1042300002460B46DDE90201FBF78EFFCAE90E01DB
:1042400042464B4620462946FCF73EF902460B46BD
:10425000DDE90C01FBF780FFCAE910013046394661
:1042600012B0BDE8F08700002DE9F04F85B004469C
:10427000B0F90C00FCF7BEF80022734BFCF724F9F0
:10428000C4E90601B4F90E00FCF7B4F800226E4B45
:10429000FCF71AF9C4E90801B4F91000FCF7AAF810
:1042A00063A3D3E90023FCF739FAC4E90A01B4F99E
:1042B0003000FCF79FF860A3D3E90023FCF72EFA47
:1042C000C4E90E01B4F93200FCF794F85AA3D3E91B
:1042D0000023FCF723FAC4E91001B4F93400FCF719
:1042E00089F855A3D3E90023FCF718FAC4E91201B1
:1042F000FDF7E0FD554D2B68C01AFCF76BF8002266
:10430000534BFCF70BFA80468946FDF7D3FD286036
:10431000B4F90C00B4F9103003FB03F300FB0030D8
:10432000FCF768F806F06CFF06460F4600220023F3
:10433000FCF732FB002866D1B4F90E00FCF75AF8FE
:1043400032463B46FCF7EAF906F0C6FD3CA3D3E94A
:104350000023FCF7B9F882468B46B4F90C506D4245
:10436000B4F91000FCF746F806460F462846FCF75D
:1043700041F832463B4606F041FF31A3D3E9002322
:10438000FCF7A2F806460F460022324BFCF70EFB64
:1043900030B10022304BD4E91801FCF725FB70B98D
:1043A00000222D4B30463946FCF71EFB00282FD04B
:1043B0000022284BD4E91801FCF7F8FA40B3274B48
:1043C000C3E90667C4E91867666E0022224B206EB7
:1043D00026F00041FCF708FB28B1E16BA26B01F16C
:1043E0000043C4E90E23CDE90289D4E91023CDE9C5
:1043F000002352465B461A48FFF73CFEC4E916010B
:1044000005B0BDE8F08F4FF0000A4FF0000BA4E7B5
:10441000CDE90289D4E91023CDE9002332463B4699
:104420000E48FFF727FEC4E91801CDE7AFF300807F
:10443000000000000029CC40000000000060604047
:10444000F8C1631ADCA54C400000103F900D00201D
:1044500000408F40008056C0008056405800002029
:10446000100000200000000038B50D46FBF7D4FF17
:104470000BA3D3E90023FBF771FEFCF7E7FA0A4927
:10448000FCF742FC044609492846FCF73DFC01467E
:104490002046FCF731FBFCF7FDFD38BDAFF3008093
:1044A000666666666666064000001AC2E17A34C136
:1044B0002DE97043FCF7D4FB05462F4B18602F4EB7
:1044C0002F493068FCF720FC044630602846FBF793
:1044D000A3FF23A3D3E90023FBF7F6FF8046894619
:1044E0002046FBF799FF42464B46FBF737FEFCF7A9
:1044F000ADFA04463060234D2968FCF7FDFA2860C8
:104500002149FCF7BDFD08B11F4A2A601F491D4B18
:104510001868FCF797FD10B11A4B1C4A1A60204628
:10452000FBF77AFF10A3D3E90023FBF7CDFF044686
:104530000D46144B1868FBF76FFF0DA3D3E900235A
:10454000FBF7C2FF02460B4620462946FBF706FE54
:10455000FCF754FA0E4B1860BDE87083AFF300808F
:104560009A9999999999C93F6666666666663C40CC
:10457000931804560E2DC23F740D00206C0D0020C0
:10458000CDCC4C3F700D00200000C8420000C8C2D6
:10459000800D0020254BD3F8303103B170472DE951
:1045A000F041234B19684B6A1BB2224D2B60224B02
:1045B0001A68536A1BB2DFF88480C8F80030002301
:1045C0004B6253621E4C1F49204600F021F92046E1
:1045D00000F034F92046FFF747FED4E91867D4E924
:1045E0001001FCF733FA044630463946FCF72EFA40
:1045F0002146FFF739FF144C2060D8F800102868D6
:10460000FFF756FF114B186023685B42181A104CD5
:104610002060104D286029462046FFF7D5FC296808
:104620002068FFF7F3FCBDE8F08100BF00002142E5
:10463000D80C0020780D0020900C00207C0D00206C
:10464000D00B0020380C0020680D0020840D0020C5
:10465000880D00208C0D002070B582B005460C46F8
:10466000154E0DF107031B220178304600F063F967
:104670009DF8073023F018035BB243EAC403DBB2B2
:104680008DF807301B222978304600F0A9F9032C59
:1046900005D8DFE804F002070A0D084B6B60002024
:1046A00002B070BD064B6B60F9E7064B6B60F6E736
:1046B000054B6B60F3E700BF005400402D23FA3B2D
:1046C0002D237A3C90C1F93C90C1793D70B582B000
:1046D00005460C46174E0DF107031C2201783046A3
:1046E00000F029F99DF8073023F018035BB243EA84
:1046F000C403DBB28DF807301C222978304600F065
:104700006FF9032C06D8DFE804F002080C104FF014
:104710006253AB60002002B070BD4FF06453AB60D9
:10472000F8E74FF06653AB60F4E74FF06853AB60C7
:10473000F0E700BF0054004008B50B46192201788D
:10474000034800F04DF900B908BD0120FCE700BFA7
:1047500000540040F0B583B0044616461F4661F091
:104760002F010170174D184A0021284600F0D4F897
:104770002178284600F050F900BB05460DF10703EB
:10478000752221780F4800F0D6F89DF80730682B85
:1047900001D0032513E000236B222178094800F0A3
:1047A0001FF907212046FFF7C7FF31462046FFF7D4
:1047B0008DFF39462046FFF74FFF00E002252846CF
:1047C00003B0F0BD00540040801A060030B583B03D
:1047D00004460E4D212338220178284600F000F9C6
:1047E0000DF1070337222178284600F0A4F89DF840
:1047F000073043F010038DF8073037222178284620
:1048000000F0EEF8002003B030BD00BF00540040BF
:1048100010B582B00C4600230B700DF107033A224D
:104820000178054800F087F820B99DF8073023701B
:1048300002B010BD0120FBE70054004010B586B067
:1048400004460E23009302AB3B2201781F4800F080
:104850009CF89DF808209DF8093043EA0223A381C3
:104860009DF80A209DF80B3043EA0223E3819DF86E
:104870000C209DF80D3043EA022323829DF80E3070
:104880001B021BB29DF80F001843FCF7E9F9104911
:10489000FCF7EEFA0F49FCF72FF920659DF8102080
:1048A0009DF8113043EA022323869DF812209DF8DB
:1048B000133043EA022363869DF814209DF81530D7
:1048C00043EA0223A386002006B010BD0054004036
:1048D0000000AA43B81E124200238361C3604FF454
:1048E000804202614361C36103624160836070473B
:1048F000064B984205D003F58063984203D0002010
:104900007047034870470348704700BF0054004099
:10491000A0000020F400002070B506461546FFF701
:10492000E7FF044606602946FFF7D6FF2046FDF75D
:1049300079FE002070BD70B584B00C461E468DF81F
:104940000F20FFF7D5FF0546A4B24FF47A7100910E
:1049500001230DF10F022146FDF742FF58B94FF434
:104960007A7300930123324621462846FDF7F4FF6F
:1049700030B904B070BD2846FEF75AFA0120F8E7B6
:104980002846FEF755FA0120F3E770B584B00C46CF
:104990001E468DF80F20FFF7ABFF0546A4B24FF47B
:1049A0007A71009101230DF10F022146FDF718FFE6
:1049B00060B94FF47A730093BDF820303246214637
:1049C0002846FDF7C9FF30B904B070BD2846FEF790
:1049D0002FFA0120F8E72846FEF72AFA0120F3E72C
:1049E000F0B585B00C4616461D46FFF781FF074619
:1049F0008DF80C608DF80D504FF47A7300930223FC
:104A000003AA2146FDF7ECFE08B905B0F0BD384613
:104A1000FEF70EFA0120F8E710B50C46FFF768FF25
:104A2000052302222146FEF739F900B910BD012005
:104A3000FCE7000008B530B900214FF4806203485C
:104A400000F056FA08BDFF21F7E700BF9C0D0020DB
:104A50007F2815D83F2913D8104B1B7913B1B2FA10
:104A600082F25209012A0CD0CB0800EBC31001F0EE
:104A7000070101238B400A4A115C21EA030111540A
:104A80007047CB0800EBC31001F0070101238B40F6
:104A9000034A115C19431154704700BF940D002064
:104AA0009C0D0020014B188059807047940D002008
:104AB0002DE9F8439046244B1B880A7813447F2B3A
:104AC0003EDC81460D46204B5B884A7813443F2BE1
:104AD00038DC002620E01C4B1888598831442044DB
:104AE000B8FA88F2520989B280B2FFF7B1FF0134F7
:104AF0002B78A3420FD907FA04F313F4004FEAD03E
:104B0000114B1888598831442044424689B280B2FA
:104B1000FFF79EFFEBE701366A78B24208D9696871
:104B2000A9F1200302FB036331F813700024DFE7CF
:104B30002B78054A11880B4413804846BDE8F8835A
:104B40000020FBE70020F9E7940D002070B5044633
:104B50000E46154600E00134207838B12A46314629
:104B6000FFF7A6FF034620788342F4D070BD000013
:104B700000B5C3B08DF808104FF0000C09E00CF13F
:104B8000010E12F80C100DF1080C0CF80E105FFA63
:104B90008EFC1FFA8CFE9E45F1D301330A2200924F
:104BA0009BB202AA01460348FDF71AFE43B05DF826
:104BB00004FB00BF780B002000B585B08DF80C1009
:104BC0008DF80D200A230093022303AA014603480F
:104BD000FDF706FE05B05DF804FB00BF780B002072
:104BE00010B500241AE0A4F15002D2B200217820BE
:104BF000FFF7E2FF002211467820FFF7DDFF1022C9
:104C000000217820FFF7D8FF8023064A02EBC41268
:104C100040217820FFF7ACFF0134E4B2072CE2D941
:104C200010BD00BF9C0D002008B544F62063012292
:104C300078215548FEF732F8002840F0A38040F66E
:104C4000C41300E0013B002BFCD1AE2200217820F0
:104C5000FFF7B2FF202200217820FFF7ADFF1022DE
:104C600000217820FFF7A8FFB02200217820FFF76D
:104C7000A3FFC82200217820FFF79EFF00221146E3
:104C80007820FFF799FF102200217820FFF794FF8A
:104C9000402200217820FFF78FFF81220021782019
:104CA000FFF78AFFFF2200217820FFF785FFA1226E
:104CB00000217820FFF780FFA62200217820FFF74F
:104CC0007BFFA82200217820FFF776FF3F220021FA
:104CD0007820FFF771FFA42200217820FFF76CFFF6
:104CE000D32200217820FFF767FF002211467820A9
:104CF000FFF762FFD52200217820FFF75DFFF02249
:104D000000217820FFF758FFD92200217820FFF7F3
:104D100053FF222200217820FFF74EFFDA220021E4
:104D20007820FFF749FF122200217820FFF744FF87
:104D3000DB2200217820FFF73FFF2022002178208E
:104D4000FFF73AFF8D2200217820FFF735FF14226C
:104D500000217820FFF730FFAF2200217820FFF7F5
:104D60002BFF2E2200217820FFF726FF0020FFF7DF
:104D700061FEFFF735FF054B00221A805A800120A3
:104D8000587108BD0020FCE7780B0020940D00202E
:104D9000022801D80120704708B500F07FF80923E8
:104DA0000360002008BD000010B5013801280AD8B2
:104DB00014464FF0FF3392B207480068FFF725F81A
:104DC00040B9204610BD00F069F8092303604FF098
:104DD000FF30F7E70520F5E79C110020022801D8F5
:104DE0000020704708B500F059F8092303604FF020
:104DF000FF3008BD08B500F051F8092303604FF0FB
:104E0000FF3008BD08B548B94FF0FF33012208480C
:104E10000068FFF766F840B9012008BD00F03EF8D1
:104E2000092303604FF0FF30F7E70520F5E700BFE7
:104E30009C11002008B5022804D84FF400534B60A1
:104E4000002008BD00F02AF809230360F8E70000FD
:104E50000C480D490D4A002302E0D458C4500433D5
:104E6000C4188C42F9D30A4A0A4C002301E01360AB
:104E70000432A242FBD3FCF7FFFD00F015F8FCF76B
:104E8000E5FC704700000020040B0020E4C100088E
:104E9000080B0020E8110020FEE70000014B186815
:104EA000704700BF5001002070B50D4E0D4D761BB0
:104EB000B61006D0002455F8043B01349847A642AA
:104EC000F9D1094E094D06F05BFB761BB61006D0F2
:104ED000002455F8043B01349847A642F9D170BD2F
:104EE000D8C10008D8C10008E0C10008D8C1000836
:104EF000830730B548D0541E002A3FD00346CAB2BB
:104F000001E0013C3AD303F8012B9D07F9D1032CB2
:104F10002DD9CDB245EA05250F2C45EA054536D9F0
:104F2000A4F1100222F00F0C03F1200EE6444FEA28
:104F3000121C03F1100242E9045542E902551032F5
:104F40007245F8D10CF1010214F00C0F03EB0212C0
:104F500004F00F0C13D0ACF1040323F0030304336B
:104F6000134442F8045B9342FBD10CF003042CB1D0
:104F7000CAB21C4403F8012B9C42FBD130BD6446ED
:104F80001346002CF4D1F9E703461446BFE71A464E
:104F9000A446E0E70CB410B51E4B00291C689CB079
:104FA00033DB4FF402734FF6FF7CADF81430029000
:104FB00006901FAB16D001391E9A04910791204626
:104FC00002A90193ADF816C000F054F8421C01DAB2
:104FD0008B2323600022029B1A701CB0BDE8104096
:104FE00002B070470491079120461E9A02A90193CE
:104FF000ADF816C000F03EF8431C01DA8B232360A5
:105000001CB0BDE8104002B070478B234FF0FF305A
:105010002360F5E75001002020F0030110F00300A9
:10502000C0F1000051F8043B00F1040C4FEACC0C35
:105030006FF000021CBF22FA0CF213434FF0010C78
:105040004CEA0C2C4CEA0C4CA3EB0C0222EA0302B7
:1050500012EACC1204BF51F8043B0430F4D0C2F180
:10506000000102EA0102B2FA82F2C2F11F0200EB71
:10507000D20070472DE9F04FD5B00C460C91914607
:105080000E930A9003F038F8036818461793FFF759
:10509000C3FFA3891690190603D52369002B00F0DE
:1050A0008F8700242BAB224698464D46CDE92944F4
:1050B0002893129400230024CDE914342B78CDE9F1
:1050C0001922CDE91B2218920892002B00F0CE8104
:1050D000AA4604E01AF8013F002B00F00981252BB5
:1050E000F8D1BAEB050640F007819AF80030002BA2
:1050F00000F0BC8100234FF0FF324FF02B09202439
:105100001F469AF8016007920AF1010A8DF8833070
:1051100009930AF1010AA6F120035A2B00F220811B
:10512000DFE813F0CA021E011E01C5021E011E01A6
:105130001E01A3021E011E016A00F3021E014702A6
:10514000D9021E01D4025B005B005B005B005B00C8
:105150005B005B005B005B001E011E011E011E0167
:105160001E011E011E01B0011E010B027A00B001DA
:10517000B001B0011E011E011E011E019E021E0192
:105180001E01B6001E011E011E0119021E014C0265
:105190001E011E013F071E011E011E011E011E01F0
:1051A0001E011E011E01B0011E010B027C00B00198
:1051B000B001B00191027C0075001E0184021E0145
:1051C0007002B8005E0275001E01190272001C0711
:1051D0001E011E011F071E0172000022A6F13003EE
:1051E0001AF8016B02EB820203EB4202A6F13003D4
:1051F000092BF5D909928EE70E9B53F8042B002A50
:1052000009920E93C0F2D2819AF8006081E79AF871
:10521000006047F020077CE747F01007BA060E9BB6
:1052200040F17D81073323F007031A465B6852F88B
:10523000084B99460E92002BC0F27F85079B0133E5
:1052400001F0398054EA090327F0800B00F005854E
:105250000A2C79F1000380F0938701235F463034F4
:105260008DF84F410B930DF24F15079A0B990023C0
:105270008A42B8BF0A4606929DF883200D930F9389
:1052800013931093002A7CD0069B0133069378E099
:1052900047F0100717F0200900F032810E9B07330A
:1052A00023F00703D3F8049053F8084B0E93002320
:1052B00027F4806B00228DF88320079A511C00F0A0
:1052C0002A8254EA09012BF0800740F02382002A49
:1052D00041F02B80002B40F0C5841BF001030B93A1
:1052E00000F0548530230DF24F158DF84F31BCE797
:1052F000BAEB050600F0BA802A9BC8E90056334491
:105300002A93299B0133072B299305DC08F1080810
:10531000089B33440893E8E60C990A9828AA03F0FE
:10532000CFFE80B90DF1AC08F2E70C990A9828AAD3
:1053300003F0C6FE002800F08A800D9B1BB10D997A
:105340000A9802F0B5FD0C9B9B8913F0400F089B57
:1053500018BF4FF0FF330893089855B0BDE8F08FA1
:10536000002E00F08380012300228DF8EC6006936C
:105370003BAD8DF883200B930D9207920F92139201
:10538000109217F0020302D006990231069117F02D
:10539000840B07D109990698A1EB0009B9F1000F18
:1053A00000F336832A9C82B10122C8F80420299A8E
:1053B000013401320DF18301072A2A942992C8F899
:1053C000001000F3698308F108087BB10223C8F8D4
:1053D0000430299B0234013321AA072B2A942993F4
:1053E000C8F8002000F36C8308F10808BBF1800FB7
:1053F00000F02E82079B0B9AA3EB020BBBF1000F70
:1054000000F37182FB0500F1C5810B9BC8F80050C9
:105410001C44C8F80430299B2A940133072B299394
:1054200000F3EA8208F108087B0705D5099B069A74
:105430009D1A002D00F35083DDE9083206998A4257
:10544000ACBF9B185B180893002C7FF46EAF002351
:1054500029930D9B1BB10D990A9802F029FD554621
:105460000DF1AC082B78002B7FF432AE2A9B002B79
:105470003FF469AF0C9C0A98214628AA03F020FE4D
:10548000A38962E70E9B073323F00702F2E8023498
:10549000CDE91434DDE9143424F00044994618466B
:1054A0000E9221464FF0FF32B64BFBF78FFE0028DD
:1054B00040F09684484621464FF0FF32B14BFBF74F
:1054C0007FFA002840F08C84DDE9140100220023DB
:1054D000FBF76CFA002840F0A6879DF88320002196
:1054E0000320A94DA94B27F080070D910690472E68
:1054F000C8BF1D4607910B900F9113911091C1E603
:1055000017F0100340F0628417F0400200F07B8730
:105510000E9A994652F8044B0E92A4B2C7E653F87D
:10552000044B0E93FB0600F141847D0640F13B8461
:1055300044F3C0394B4624B27DE6012000220E9B85
:10554000069053F8041B3BAD8DF883208DF8EC10CA
:105550000E930B9010E74FF000090E9C079B54F838
:10556000045B8DF88390002D00F0EE865A1C00F04D
:1055700060851A464946284603F0E6F80D90002853
:1055800001F09E800D9B9DF883205B1B0B9323EA0B
:10559000E373CDF81C900E940693CDF83490CDF8BB
:1055A0003C90CDF84C90CDF840906BE6099B5B4267
:1055B00009939AF8006047F00407AAE547F0100B3A
:1055C0001BF0200900F0AA830E9B073323F007038A
:1055D0001A4652F8084BD3F804900E92012369E65C
:1055E000302278260E9B8DF8842053F8044B684AAD
:1055F0000E934FF00009022347F0020B8DF88560EF
:10560000189257E6BD0600F1D683FC0600F193869A
:10561000780600F15D87B90540F18D860E9B0899EB
:1056200053F8042B554611700E931BE79AF800604F
:105630006C2E03BF9AF8016047F020070AF1010AB7
:1056400047F0100765E59AF80060682E03BF9AF8E6
:10565000016047F400770AF1010A47F0400758E576
:105660009AF8006047F0080753E50A9E304602F0BA
:1056700043FD436818461B93FFF7CEFC03463046B4
:105680001C931E4602F038FD83681993002E3FF4E8
:10569000BBAD199B002B3FF4B7AD199B1B78002BBA
:1056A0003FF4B2AD9AF8006047F4806731E59AF8AC
:1056B000006047F001072CE59DF88330002B7FF454
:1056C000A3AD9AF800608DF8834022E59AF8006057
:1056D00047F080071DE5524612F8016B2A2E01F0B3
:1056E000EB81A6F13003092B924698BF002201F20C
:1056F00003801AF8016B02EB820203EB4202A6F16F
:105700003003092BF5D9079205E59AF800608DF86A
:105710008390FEE4BB46012B3FF49AAD022B54ADBF
:1057200012D1189A04F00F03D35C240944EA0974D7
:105730004FEA191905F8013D54EA0903F2D154ABB7
:105740005B1B5F460B9390E504F00703E40844EA13
:1057500049744FEAD909303354EA09012A4605F859
:10576000013DF1D11BF0010FE9D0302BE7D0302300
:10577000023A05F8013C54AB9B1A5F4615460B9361
:1057800073E500BFFFFFEF7F68BD00086CBD000838
:1057900078BD0008652E40F3E980DDE914010022A0
:1057A0000023FBF7F9F8002800F0D2810123C8F8A4
:1057B0000430299BBF4A01330134072B2A942993D3
:1057C000C8F8002000F37A8508F10808229B129A95
:1057D000934280F2D782169B179A1C44C8E9002393
:1057E000299B2A940133072B299300F3DD8308F1C9
:1057F0000808129B5D1E002D7FF716AE102D41F399
:105800004181DFF8B492224649461026B946299BC9
:105810000F46DDF828B00C9C05E008F10808103DA3
:10582000102D40F3588501331032072BC8E900765C
:10583000CDE92932F1DD2146584628AA03F040FC83
:1058400000287FF47AADDDE929320DF1AC08E6E7F6
:10585000099B069AA3EB020BBBF1000F7FF7CAADC1
:10586000BBF1100F41F30580DFF84C924146204612
:10587000A8464C461023299A0C9DDDF8289006E096
:10588000ABF1100BBBF1100F01F1080119DD013272
:105890001030072AC1E90043CDE92920F0DD29466F
:1058A000484628AA03F00CFC00287FF446ADDDE949
:1058B0002920ABF1100BBBF1100F4FF010032BA9F7
:1058C000E5DC4546A1468846044601325C44072A89
:1058D000CDE92924C8F80090C8F804B000F3188571
:1058E00008F1080886E5BBF1100F40F39785DFF853
:1058F000C89141462046A8464C461023299A0C9D43
:10590000DDF8289006E0ABF1100BBBF1100F01F1B0
:10591000080119DD01321030072AC1E90043CDE941
:105920002920F0DD2946484628AA03F0C9FB0028B3
:105930007FF403ADDDE92920ABF1100BBBF1100FB3
:105940004FF010032BA9E5DC4546A14688460446E6
:1059500001325C44072ACDE92924C8F80090C8F830
:1059600004B000F3CE8108F108084BE5129B012B2F
:1059700040F37E810123299E01341E44072EC8F87E
:1059800000502A94C8F80430299600F3E18108F108
:105990000808169B0136179A1C44072EC8E90023F5
:1059A000CDE9296400F3E18108F108080022DDE96E
:1059B00014010023FAF7F0FF002840F07681129BD3
:1059C0000136013B01351C44072EC8F800502996CA
:1059D000C8F804302A9400F35B8108F108081A9B88
:1059E00001361C44C8F80430072E24ABCDE92964E5
:1059F000C8F800307FF716AD0C990A9828AA03F072
:105A00005FFB00287FF499AC2A9C0DF1AC080BE5F4
:105A1000B9F1100F40F35086DDE929214046CDE968
:105A20001D36B84610244F460C9EA9460A9D04E038
:105A3000103F102F00F1080016DD01321F4B10310E
:105A4000072AC0E90034CDE92921F1DD3146284695
:105A500028AA03F035FB00287FF46FACDDE929218B
:105A6000103F102F2BA8E8DC4D46DDE91D36B94666
:105A70004746804609EB010401321049072ACDE967
:105A80002924C8F80490C8F8001000F3C3839DF8D7
:105A9000832008F1080886E40C990A9828AA1D9327
:105AA00003F00EFB00287FF448AC2A9C1D9B0DF1EF
:105AB000AC088AE4A8BD0008BCBD0008ACBD000865
:105AC0000C990A9828AA03F0FBFA00287FF435AC59
:105AD0002A9C0DF1AC0889E4102D40F3C4861026F1
